:100000000C94AB000C94C8000C94C8000C94C8006D
:100010000C94C8000C94C8000C94C8000C94C80040
:100020000C94C8000C94C8000C94C8000C94C80030
:100030000C94C8000C94C8000C94C8000C94C80020
:100040000C94C8000C94C8000C94C8000C94C80010
:100050000C94C8006E616E00696E660000407A10F4
:10006000F35A00A0724E18090010A5D4E80000E869
:100070007648170000E40B54020000CA9A3B0000C7
:1000800000E1F505000080969800000040420F0056
:100090000000A08601000000102700000000E80317
:1000A000000000006400000000000A0000000000E2
:1000B0000100000000002C76D888DC674F0823DFA1
:1000C000C1DFAE59E1B1B796E5E3E453C63AE65174
:1000D000997696E8E6C28426EB898C9B62ED407C9B
:1000E0006FFCEFBC9C9F40F2BAA56FA5F490055A37
:1000F0002AF75C936B6CF9676DC11BFCE0E40D475C
:10010000FEF520E6B500D0ED902E0300943577057E
:100110000080841E080000204E0A000000C80C3336
:100120003333330F986E12831141EF8D2114893BC5
:10013000E65516CFFEE6DB18D1844B381BF77C1D45
:10014000901DA4BBE424203284725E228100C9F198
:1001500024ECA1E53D2711241FBECFE5D8E0DEBF8A
:10016000CDBF10E0A0E6B0E0ECE8F5E102C00590FC
:100170000D92A639B107D9F710E0A6E9B0E001C0A9
:100180001D92A83AB107E1F70E9466010C94C40AD7
:100190000C9400001F93CF93DF93CDB7DEB7299760
:1001A0000FB6F894DEBF0FBECDBF8FEF898310E08E
:1001B00016C0CE010196BE016E5F7F4F0E945702AE
:1001C00089818F3F91F08E3F81F0DE011296EAE93E
:1001D000F0E088E09D9191938150E1F711E08981F1
:1001E000882319F0112329F311E0812F29960FB6E6
:1001F000F894DEBF0FBECDBFDF91CF911F91089560
:10020000CF92DF92EF92FF92CF93DF9300D000D096
:100210000F92CDB7DEB7C82E81E060E070E00E949B
:1002200070028FEF9FE4A9E181509040A040E1F778
:1002300000C000008C2DBE016B5F7F4FAE014D5F93
:100240005F4F9E012F5F3F4F0E948B026B8170E0DA
:1002500080E090E00E9498046B017C01498150E0AD
:1002600021E732E0429FC001439F900D529F900DC5
:10027000112464E670E00E94B00870E080E090E035
:100280000E94960420E030E048EC52E40E942E04E4
:100290009B01AC01C701B6010E94CA03462F572F2C
:1002A000682F792FDB01CA012D81213009F4B05864
:1002B000BC01CD010F900F900F900F900F90DF9128
:1002C000CF91FF90EF90DF90CF90089588E890E075
:1002D0009093A5008093A4009093A3008093A20024
:1002E0008FEF9FE5A3E081509040A040E1F700C070
:1002F000000080E895E260E040E020E003E00E943A
:1003000092030E94CA0000D000D0EDB7FEB731962C
:1003100020E630E0ADB7BEB712963C932E9311970E
:10032000828313820E944A0AC2EAD0E00F900F90A3
:100330000F900F900AE710E000D000D0EDB7FEB7A5
:100340003196ADB7BEB712961C930E9311978A9152
:10035000828313820E944A0A0F900F900F900F9091
:10036000B0E0CA39DB0741F78DE090E00E945F0AF8
:10037000CFE7D0E00AEB10E080919A000E940001E4
:10038000DC01CB01EDB7FEB738970FB6F894FEBF8E
:100390000FBEEDBF2DB73EB72F5F3F4FD283C18356
:1003A000F90182839383A483B583178306830E9414
:1003B0004A0A8FEF9FEDA0E181509040A040E1F705
:1003C00000C00000ADB7BEB718960FB6F894BEBF18
:1003D0000FBEADBFD1CFFC0120E030E080E0A8E14E
:1003E00011C0419198E0542F5827B52FB17050FD9E
:1003F0008A278695B13009F480684695915099F71F
:100400002F5F3F4F2617370761F708950F931F930C
:10041000CF93DF93E82FDB01EA01B9014C9150E063
:1004200011969C91119780E0482B592BE03181F473
:10043000CA018E7F33E0880F991F3A95E1F716962F
:100440002C9116974CE050E0421B5109480F591F60
:1004500057FF06C081E08883509541955F4F01C0EA
:100460001882E83299F414968C91149790E09C01CC
:10047000207630702036310549F086FF02C04E7F6D
:1004800005C085FF02C04C7F01C0487FCA0124E03F
:10049000969587952A95E1F7FB0180834F70F801C7
:1004A000408380E0DF91CF911F910F9108950F93CA
:1004B0001F93CF93DF93EC018B018881B8010E94D9
:1004C0002803888381508D3F30F4F8018081883281
:1004D00011F0803191F7DF91CF911F910F91089525
:1004E0001F93CF93DF93182FEB010E94E1020E942C
:1004F000DB02882349F084E4BE010E9473031130BB
:1005000029F00E94DE0202C082E001C080E0DF919B
:10051000CF911F9108958F929F92AF92BF92CF92E9
:10052000DF92EF92FF920F931F93CF93DF93CDB79C
:10053000DEB729970FB6F894DEBF0FBECDBFD82E19
:100540005B014A0179018EEB60E070E00E94730369
:100550008E010F5F1F4F89E0C82E0E942403F8010F
:1005600081938F01CA94C9F7CE01019669E070E0CA
:100570000E94EB01882359F48D2DBE016F5F7F4FE0
:10058000A501940187010E94060280E001C083E07A
:1005900029960FB6F894DEBF0FBECDBFDF91CF9185
:1005A0001F910F91FF90EF90DF90CF90BF90AF9091
:1005B0009F908F90089586B384700895C29ABA9AD6
:1005C0000895C298BA9A8FE295E00197F1F79FB724
:1005D000F894BA98E3EFEA95F1F7000086B39FBF6D
:1005E000E8E7F4E03197F1F700C0B29B02C08470F5
:1005F000089581E008959FB7F894BA9A24E02A9567
:10060000F1F78111BA9823E32A95F1F700C0B29B64
:1006100080E026EA2A95F1F7BA989FBF9EE69A9560
:10062000F1F700C00895CF93DF93C82FD8E08C2F47
:1006300081700E94FB02C6958111C068D150B9F744
:100640008C2FDF91CF9108958FEF0E9413030895AF
:10065000DF92EF92FF920F931F93CF93DF93182FA8
:10066000EB010E94E102882381F580EF0E941303D1
:10067000EE2400E498E0D92E81E00E94FB02F82EDF
:1006800081E00E94FB02882319F0FF2069F020C05E
:10069000FF2051F4011728F0888180FF05C0101752
:1006A00019F0E02EFF24F3948F2D0E94FB02888125
:1006B00086958883FF2011F0806888830150DA9442
:1006C000D9F621960023B1F605C0EE24EA9402C0C3
:1006D0008EEFE82E8E2DDF91CF911F910F91FF901D
:1006E000EF90DF9008950F931F93CF93DF93182F10
:1006F000EB010E94E102209751F085E50E9413036F
:1007000008E089910E9413030150D9F703C08CECD3
:100710000E941303812F0E941303DF91CF911F9139
:100720000F9108950F93CF93DF93C42FD22F9C0185
:1007300040E050E060E07CE88AE090E00E94C3087E
:100740002150304030BD29B98AB188618AB980B55D
:100750008068C295C07FC82BDD0FDD0FDD0FDC2B5D
:10076000000F0D2B00BDDF91CF910F9108955F9B7E
:10077000FECF8CB1089580E00E94B70308955D9B81
:10078000FECF8CB9089560E00E94BF0380E090E046
:1007900008955058BB27AA270ED01CC10DD130F0A8
:1007A00012D120F031F49F3F11F41EF402C10EF477
:1007B000E095E7FBF8C0E92F1ED180F3BA17620776
:1007C00073078407950718F071F49EF536C10EF48F
:1007D000E0950B2EBA2FA02D0B01B90190010C0151
:1007E000CA01A0011124FF27591B99F0593F50F469
:1007F000503E68F11A16F040A22F232F342F4427C1
:10080000585FF3CF469537952795A795F0405395B8
:10081000C9F77EF41F16BA0B620B730B840BBAF088
:100820009150A1F0FF0FBB1F661F771F881FC2F7F3
:100830000EC0BA0F621F731F841F48F48795779507
:100840006795B795F7959E3F08F0B3CF9395880FBE
:1008500008F09927EE0F9795879508950CD0BAC0A8
:10086000B2D040F0A9D030F021F45F3F19F09BC026
:100870005111E4C09EC0BFD098F39923C9F355230A
:10088000B1F3951B550BBB27AA2762177307840783
:1008900038F09F5F5F4F220F331F441FAA1FA9F339
:1008A00033D00E2E3AF0E0E830D091505040E6952B
:1008B000001CCAF729D0FE2F27D0660F771F881F8C
:1008C000BB1F261737074807AB07B0E809F0BB0B7B
:1008D000802DBF01FF2793585F4F2AF09E3F51059F
:1008E00068F061C0ABC05F3FECF3983EDCF38695E7
:1008F00077956795B795F7959F5FC9F7880F911D15
:100900009695879597F90895E1E0660F771F881F00
:10091000BB1F621773078407BA0720F0621B730BB3
:10092000840BBA0BEE1F88F7E0950895E89409C090
:1009300097FB3EF490958095709561957F4F8F4F12
:100940009F4F9923A9F0F92F96E9BB279395F69528
:10095000879577956795B795F111F8CFFAF4BB0FA6
:1009600011F460FF1BC06F5F7F4F8F4F9F4F16C00A
:10097000882311F096E911C0772321F09EE8872F94
:10098000762F05C0662371F096E8862F70E060E050
:100990002AF09A95660F771F881FDAF7880F9695C9
:1009A000879597F9089597F99F6780E870E060E070
:1009B00008959FEF80EC089500240A9416161706F8
:1009C00018060906089500240A9412161306140640
:1009D00005060895092E0394000C11F4882352F0A3
:1009E000BB0F40F4BF2B11F460FF04C06F5F7F4F5B
:1009F0008F4F9F4F089557FD9058440F551F59F042
:100A00005F3F71F04795880F97FB991F61F09F3FFB
:100A100079F087950895121613061406551FF2CF24
:100A20004695F1DF08C0161617061806991FF1CF74
:100A300086957105610508940895E894BB2766279B
:100A40007727CB0197F90895A5E1B0E0EAE2F5E058
:100A50000C94E5084C017F876E87FC011782168293
:100A6000838181FD04C076C34C855D8504C01E0171
:100A70000894211C311CF4019381EE85FF8593FDC0
:100A8000859193FF8191FF87EE87882309F45EC3E8
:100A9000853241F493FD859193FF8191FF87EE8725
:100AA000853259F490E0B4014C8B5D8B0E941E0A94
:100AB0004C895D895D874C87D7CFFF24DD2410E00A
:100AC0001032B0F48B3269F08C3228F4803251F05D
:100AD000833271F40BC08D3239F0803349F41160E8
:100AE0002CC01260146029C0186027C0106125C096
:100AF00017FD2EC0282F20532A3098F416FF08C067
:100B00008F2D880FF82EFF0CFF0CF80EF20E15C07B
:100B10008D2D880FD82EDD0CDD0CD80ED20E106274
:100B20000CC08E3221F416FD11C3106406C08C3641
:100B300011F4106802C0883659F4EE85FF8593FDE4
:100B4000859193FF8191FF87EE87882309F0B8CFC5
:100B5000982F9554933018F41061805E06C0982F3A
:100B60009556933008F0A2C11F7E16FD02C0E6E044
:100B7000FE2E1F73853611F4106406C0863611F4FC
:100B8000106802C0F110FA9417FF07C0FBE3FF15CD
:100B900048F0EF2CE39427E00DC027E02F1530F04C
:100BA0002F2D07C027E07CE3E72E04C027E067E095
:100BB000F62EEE24CA0104969D878C87FA01608187
:100BC000718182819381A1010E2D0E9430095C0107
:100BD000C9802C2D30E0398B288BC0FE03C03889AA
:100BE00033FF06C011FD06C012FF06C000E205C0BB
:100BF0000DE203C00BE201C000E0888999898C7086
:100C00009070009709F43CC0002311F084E001C00B
:100C100083E08D1558F4D81A13FD09C080E290E0E6
:100C2000B4010E941E0ADA94C9F701C0DD24002332
:100C300029F0802F90E0B4010E941E0A888983FD6C
:100C400005C038E5E32E30E0F32E11C024E5E22E96
:100C500020E0F22E0CC00115110509F0805290E041
:100C6000B4010E941E0A0894E11CF11C04C0012F6B
:100C700010E000711070F7018491882361F763C25E
:100C800017FF0EC0EA0CF889F4FF04C08A81813393
:100C900009F4EA941E144CF528E02E1548F12CC0F6
:100CA00016FD2AC08F2D90E08A159B0544F03CEF7D
:100CB000A3163FEFB3061CF0106801C0FA94FF20A2
:100CC00049F0E2E0F0E0EC0FFD1FEF0DF11D808137
:100CD0008033A1F317FF10C0EF2CE3948F2D90E029
:100CE000A816B90644F4FA1807C0EE24E39404C029
:100CF00098E0E92E01C0FF2417FF07C01A141B0457
:100D00003CF495012F5F3F4F05C025E030E002C065
:100D100021E030E0002311F02F5F3F4FFF2029F04A
:100D20008F2D90E00196280F391F8D2D90E0281708
:100D3000390714F4D21A01C0DD24612E7724C301CF
:100D400089709070009749F406C080E290E0B40189
:100D50000E941E0ADA94DD20C1F7002329F0802FBB
:100D600090E0B4010E941E0A63FC09C006C080E343
:100D700090E0B4010E941E0ADA94DD20C1F717FF4B
:100D800048C08501B7FE02C000E010E06624772469
:100D900095012E1931093B8B2A8B2501401A510AE6
:100DA000420C531C6F2D70E0EE24FF24E61AF70A64
:100DB0003FEF0F3F130729F48EE290E0B4010E9449
:100DC0001E0AA016B10654F02A893B892017310764
:100DD0002CF4F201E60DF71D818101C080E3015082
:100DE00010400894611C711C0E151F052CF090E03A
:100DF000B4010E941E0ADCCF0A151B0541F49A813A
:100E0000963320F4953319F4388934FF81E390E068
:100E100049C08A81813311F09FEEC92290E0B4016C
:100E20000E941E0AFF2089F08EE290E0B4010E9429
:100E30001E0A12E0F101E10FF11D1F5F808190E0B9
:100E4000B4010E941E0AFA94A9F764FE03C085E467
:100E500090E002C085E690E0B4010E941E0AB7FC53
:100E600005C0A114B10441F4C4FE06C0B094A1941D
:100E7000B108B3948DE201C08BE290E0B4010E940E
:100E80001E0A80E305C08F5FE6EFFFEFAE0EBF1EC8
:100E9000FAE0AF16B104BCF790E0B4010E941E0A5C
:100EA000C501C096B4010E941E0A4DC1833631F0BF
:100EB000833789F0833509F059C022C09A012E5F2B
:100EC0003F4F3D872C87FA018081898381E0E82E9E
:100ED000F12C510113C09A012E5F3F4F3D872C87A3
:100EE000FA01A080B18016FF03C06F2D70E002C030
:100EF0006FEF7FEFC5010E94130A7C011F7714C0BA
:100F00009A012E5F3F4F3D872C87FA01A080B18068
:100F100016FF03C06F2D70E002C06FEF7FEFC501B9
:100F20000E94080A7C01106813FD1CC006C080E204
:100F300090E0B4010E941E0ADA948D2D90E0E8162C
:100F4000F906A8F30FC0F50117FD859117FF8191F0
:100F50005F0190E0B4010E941E0AD110DA94089457
:100F6000E108F108E114F10471F7EDC0843611F0E5
:100F7000893671F59A0117FF0AC02C5F3F4F3D87F4
:100F80002C87FA0180819181A281B3810BC02E5FF1
:100F90003F4F3D872C87FA0180819181AA2797FDD9
:100FA000A095BA2F012F0F76B7FF08C0B095A09576
:100FB000909581959F4FAF4FBF4F0068BC01CD0109
:100FC000A1012AE030E00E94660AE82EE21841C042
:100FD000853721F41F7E2AE030E020C0197F8F364C
:100FE000A9F0803720F4883509F0B0C00BC08037F5
:100FF00021F0883709F0AAC001C0106114FF09C0B0
:10100000146007C014FF08C0166006C028E030E076
:1010100005C020E130E002C020E132E0CA0117FF44
:1010200009C004969D878C87FA0160817181828155
:10103000938108C002969D878C87FA016081718137
:1010400080E090E0A1010E94660AE82EE218012FDC
:101050000F7706FF09C00E7FEF1430F404FF06C0BF
:1010600002FD04C00F7E02C01E2D01C01F2D802F67
:1010700090E004FF0CC0FE01EE0DF11D2081203335
:1010800011F4097E09C002FF06C01E5F05C0867804
:101090009070009709F01F5FA02EBB2403FD12C0C3
:1010A00000FF0DC0FE2C1D1550F4FD0CF11A1D2D76
:1010B00006C080E290E0B4010E941E0A1F5F1D1569
:1010C000C0F304C01D1510F4D11A01C0DD24A4FE24
:1010D0000FC080E390E0B4010E941E0AA2FE1FC070
:1010E000A1FE03C088E590E010C088E790E00DC045
:1010F000C50186789070009791F0A1FC02C080E253
:1011000001C08BE207FD8DE290E0B4010E941E0A4F
:1011100006C080E390E0B4010E941E0AFA94EF1426
:10112000C0F3EA94F101EE0DF11D808190E0B4016D
:101130000E941E0AEE20A9F706C080E290E0B401EA
:101140000E941E0ADA94DD20C1F78ECCF40186815C
:10115000978102C08FEF9FEF6596E2E10C94010941
:1011600097FB092E07260AD077FD04D065D006D05C
:1011700000201AF4709561957F4F0895F6F79095C9
:1011800081959F4F0895A1E21A2EAA1BBB1BFD015A
:101190000DC0AA1FBB1FEE1FFF1FA217B307E40756
:1011A000F50720F0A21BB30BE40BF50B661F771FAE
:1011B000881F991F1A9469F760957095809590958E
:1011C0009B01AC01BD01CF0108952F923F924F9238
:1011D0005F926F927F928F929F92AF92BF92CF92C7
:1011E000DF92EF92FF920F931F93CF93DF93CDB7D0
:1011F000DEB7CA1BDB0B0FB6F894DEBF0FBECDBF48
:1012000009942A88398848885F846E847D848C8418
:101210009B84AA84B984C884DF80EE80FD800C8121
:101220001B81AA81B981CE0FD11D0FB6F894DEBF04
:101230000FBECDBFED010895AA1BBB1B51E107C036
:10124000AA1FBB1FA617B70710F0A61BB70B881F56
:10125000991F5A95A9F780959095BC01CD010895E5
:10126000283008F027E03327DA01990F311D87FD78
:10127000916000966105710539F432602E5F3D93EF
:1012800030E32A95E1F708959F3F30F080387105EB
:10129000610509F03C5F3C5F3D93913008F0806848
:1012A000911DDF93CF931F930F93FF92EF92192F0E
:1012B000987F9695E92F96959695E90FFF27EA5422
:1012C000FF4F99273327EE24FF24A701E70105905C
:1012D0000894079428F4360FE71EF81E491F511D85
:1012E000660F771F881F991F0694A1F70590079432
:1012F00028F4E70EF81E491F561FC11D770F881FDF
:10130000991F661F0694A1F70590079428F4F80E1C
:10131000491F561FC71FD11D880F991F661F771FB2
:101320000694A1F70590079420F4490F561FC71F94
:10133000D81F990F661F771F881F0694A9F78491FD
:101340001095177041F0D695C79557954795F79426
:10135000E7941A95C1F7ECE5F0E0689415901591C3
:1013600035916591959105907FE27395E118F10AA9
:10137000430B560BC90BD009C0F7E10CF11E431FFC
:10138000561FC91FD01D7EF4703311F48A95E6CF25
:10139000E894015030F0080F0AF40027021708F40F
:1013A000202F2395022F7A3328F079E37D932A9515
:1013B000E9F710C07D932A9589F60694979567956D
:1013C000379517951794E118F10A430B560BC90B83
:1013D000D00998F023957E9173957A3308F070E3E5
:1013E0007C932013B8F77E9170617D9330F08395E4
:1013F00071E37D9370E32A95E1F71124EF90FF905C
:101400000F911F91CF91DF91992787FD90950895B6
:10141000FC010590615070400110D8F780959095BF
:101420008E0F9F1F0895FC016150704001900110C4
:10143000D8F7809590958E0F9F1F08950F931F9357
:10144000CF93DF938C01EB018B8181FF1BC082FF67
:101450000DC02E813F818C819D812817390764F44E
:10146000E881F9810193F983E88306C0E885F9856D
:10147000802F0995009731F48E819F8101969F837B
:101480008E8302C00FEF1FEFC801DF91CF911F9134
:101490000F910895A0E0B0E0E0E5FAE00C94F508C3
:1014A000FE013596619171918091A4009091A50003
:1014B000AF010E9424052096E2E00C94110960918E
:1014C000A4007091A5000E941E0A0895FA01AA279F
:1014D000283051F1203181F1E8946F936E7F6E5F77
:1014E0007F4F8F4F9F4FAF4FB1E03ED0B4E03CD025
:1014F000670F781F891F9A1FA11D680F791F8A1F08
:10150000911DA11D6A0F711D811D911DA11D20D06E
:1015100009F468943F912AE0269F11243019305D28
:101520003193DEF6CF010895462F4770405D419319
:10153000B3E00FD0C9F7F6CF462F4F70405D4A3366
:1015400018F0495D31FD4052419302D0A9F7EACF2E
:10155000B4E0A6959795879577956795BA95C9F75D
:1015600000976105710508959B01AC010A2E069450
:101570005795479537952795BA95C9F7620F731F09
:0C158000841F951FA01D0895F894FFCF54
:10158C0066696E64202564204453313832302077EC
:10159C00697468204944203D2000253032780025AC
:1015AC002E32662563430D0000000003000000008E
:0615BC00C303BB030000A5
:00000001FF
