:1000000053C06DC06CC06BC06AC069C068C067C0B7
:1000100066C065C064C00DC935C961C060C05FC03D
:100020005EC05DC05CC007634236B79BD8A71A3973
:10003000685618AEBAAB558C1D3CB7CC5763BD6D36
:10004000EDFD753EF6177231BF000000803F0800DD
:100050000000BE922449123EABAAAA2ABECDCCCC47
:100060004C3E00000080BEABAAAAAA3E00000000E1
:10007000BF000000803F0000000000084178D3BBB3
:100080004387D1133D190E3CC3BD4282AD2B3E6860
:10009000EC8276BED98FE1A93E4C80EFFFBE01C451
:1000A000FF7F3F000000000011241FBECFE5D4E019
:1000B000DEBFCDBF10E0A0E6B0E0E2ECFAE102C0A6
:1000C00005900D92A036B107D9F711E0A0E6B0E097
:1000D00001C01D92AF31B107E1F711D2F0CC90CF42
:1000E000FC0120E030E08FEF9FEF70E01AC04191FB
:1000F0008427482F42954827042E4695469540254B
:10010000042E469540254770082E892F4695079462
:100110004795902D842706944795902584272F5F37
:100120003F4F2617370718F30895CF93DF93CDB7C6
:10013000DEB728970FB6F894DEBF0FBECDBFCE0155
:100140000596BE016F5F7F4F44D78F3F69F069818D
:100150007A818B819C8120E030E048EC52E482DAA5
:10016000C7D9DC01CB0102C080E090E028960FB631
:10017000F894DEBF0FBECDBFDF91CF910895EF920F
:10018000FF920F931F93CF93DF938C01EB017A01C2
:10019000E2D520E030E048EC52E464DAA4D9DC0196
:1001A000CB0199838883FFD5DC01CB01F8018083E3
:1001B0009183A283B38301D620E030E048EC52E47F
:1001C00051DA91D9DC01CB01F70180839183A283BD
:1001D000B383DF91CF911F910F91FF90EF9008951E
:1001E0008F929F92AF92BF92CF92DF92EF92FF9247
:1001F0000F931F93CF93DF9300D0CDB7DEB77C0171
:100200004B016A01590188D7F7018083C401B60107
:1002100093D7C501BE016F5F7F4FC3D7C801E8D731
:100220000F900F90DF91CF911F910F91FF90EF9062
:10023000DF90CF90BF90AF909F908F9008956F9276
:100240007F928F929F92AF92BF92CF92DF92EF9266
:10025000FF920F931F93CF933C0149015A01CC2485
:10026000DD247601C0E0062F10E00150104021C0CF
:100270000894C11CD11CE11CF11C24E02A95F1F763
:1002800003C0CC24DD24760136D821E080309207EB
:1002900031F4C814D904EA04FB0451F714C0C8149B
:1002A000D904EA04FB0478F4F301EC0FF11D808318
:1002B000CF5F8C2F90E0801791072CF4C814D904DD
:1002C000EA04FB04F0F28C2FCF911F910F91FF9065
:1002D000EF90DF90CF90BF90AF909F908F907F90E6
:1002E0006F9008950F931F93CF93DF93EC01888154
:1002F000861789F46A81FE01E60FF11D138100E083
:100300008481080F111D6D5FCE01EADE0817190701
:1003100011F4898101C080E0DF91CF911F910F918D
:100320000895EF92FF921F93CF93DF930F92CDB773
:10033000DEB7182FE82EF92E06C0F70181917F0154
:100340006983F3D769818E2D811B8617B0F30F90D7
:10035000DF91CF911F91FF90EF900895CF92DF92A0
:10036000EF92FF920F931F93CF93DF93CDB7DEB73A
:10037000962F142FCDB6DEB650E0485F5F4F6DB7B5
:100380007EB7641B750B0FB6F8947EBF0FBE6DBFB2
:10039000EDB6FEB60894E11CF11CEDB7FEB7818303
:1003A000F70191831283112339F08DB79EB704961C
:1003B000B901412F50E07ADB012F0D5FC701602F9B
:1003C0008FDEF701E00FF11D91838083612F6B5F5A
:1003D000C701A7DF0FB6F894DEBE0FBECDBEDF911A
:1003E000CF911F910F91FF90EF90DF90CF900895E4
:1003F0004F925F926F927F928F929F92AF92BF9235
:10040000CF92DF92EF92FF920F931F93CF93DF93E0
:10041000CDB7DEB7A8970FB6F894DEBF0FBECDBF3D
:10042000962F29013A019801870119828A839C83BA
:100430004D825E826F82788609871A872B873C8778
:10044000AD86BE86CF86D88A9A8A898A8BAD9CADC6
:10045000ADADBEAD8B8B9C8BAD8BBE8B25968EAD23
:100460009FAD2597988F8F8B23968CAD9DADAEADAC
:10047000BFAD2397898F9A8FAB8FBC8F27968EAD98
:100480009FAD27979E8F8D8F29968EAD9FAD299713
:1004900098A38F8F8DE18B83CE01019660E220DEE1
:1004A0009AA389A38E010F5F1F4F62E2862EF80187
:1004B00081918F013AD78A94D1F7A8960FB6F89414
:1004C000DEBF0FBECDBFDF91CF911F910F91FF9087
:1004D000EF90DF90CF90BF90AF909F908F907F90E4
:1004E0006F905F904F90089580E0D2D09C0183E0A0
:1004F000293E380710F028EE33E0C9010895CF9364
:10050000DF93CDB7DEB7A9970FB6F894DEBF0FBE65
:10051000CDBF1E8A1F8A188E198E1A8A1B8A1C8AC2
:100520001D8A1D821C822FE088E190E00FB6F894AE
:10053000A89581BD0FBE21BD8FE392E0C8D683E0B0
:1005400060E047E08CD047D571D47894A895CE016F
:100550004A9660E120E533EC40E050E070DE88230D
:10056000A9F3CE014A9661E0BDDE813009F06DC08D
:10057000CE010196BE01625F7F4FAE01465F5F4FC5
:100580009E012E5F3F4F8E010A5F1F4F29DECDDD9A
:100590003C01CE014696BE016C5F7F4FAE014E5EC0
:1005A0005F4FEDDDA1DF2DB73EB72E5030400FB6C7
:1005B000F8943EBF0FBE2DBFEDB7FEB731960E8546
:1005C0001F8528893989CA84DB84EC84FD848E8068
:1005D0009F80A884B9844A805B804E895F89688D3A
:1005E000798DADB7BEB711964D935D936D937C93A6
:1005F00014974A895B896C897D8944835583668316
:1006000077834C815D8151874087738662869587A9
:10061000848781E06981A9019801870176016501DC
:1006200054014201E5DE8FEF9FEDA0E18150904043
:10063000A040E1F700C00000ADB7BEB71E960FB6F0
:10064000F894BEBF0FBEADBF81CF81E08A8F80E03E
:100650006FEF41E09E01265E3F4F80DE77CF97B17E
:100660008295880F880F807C9F73892B87B987B10B
:10067000807E87B987B16295660F607E8F7D682B1B
:1006800067B986B1887F482B46B9369A379A08955C
:1006900097B1907E982B97B9369A349BFECF349AB7
:1006A0003D9B03C085B190E0089584B195B1089554
:1006B0001F93CF93DF930F92CDB7DEB7182F8EEE37
:1006C0006983ABD4812FCFD46981862FCCD4C5D494
:1006D0000F90DF91CF911F910895AF92BF92DF925B
:1006E000EF92FF920F931F93CF93DF9300D0CDB77C
:1006F000DEB7082FD42E8EEE69837A838ED4802FB6
:10070000B2D48FEEA8D46981062F7A81172FEE24F8
:10071000FF24AD2CBB240894A108B1080DC0EA1435
:10072000FB0411F4B4D401C0ABD4F8018083089465
:10073000E11CF11C0F5F1F4FED1488F38ED40F9056
:100740000F90DF91CF911F910F91FF90EF90DF906D
:10075000BF90AF9008950F931F93AB01BC01E0E6EB
:10076000F0E0DF0180E014960D911D912D913C91F8
:1007700017970D931D932D933D938F5F853199F7B7
:100780004093B0005093B1006093B2007093B300F7
:1007900025E180E090E0DC014191519161917191FE
:1007A000840F951FA61FB71F2150B1F7BC01CD01C3
:1007B00025E130E040E050E05ED9B901CA011F9167
:1007C0000F910895CF93DF9300D0CDB7DEB71A8293
:1007D00019828AEABE016F5F7F4F42E07EDF398176
:1007E00020E08A8190E0822B932B909316018093D6
:1007F00015018CEABE016F5F7F4F42E06EDF3981E9
:1008000020E08A8190E0822B932B90931E018093AD
:100810001D018EEABE016F5F7F4F42E05EDF3981CE
:1008200020E08A8190E0822B932B90930A018093A1
:10083000090180EBBE016F5F7F4F42E04EDF3981DF
:1008400020E08A8190E0822B932B90930201809389
:10085000010182EBBE016F5F7F4F42E03EDF3981D5
:1008600020E08A8190E0822B932B90931A01809351
:10087000190184EBBE016F5F7F4F42E02EDF3981AB
:1008800020E08A8190E0822B932B90931201809339
:10089000110186EBBE016F5F7F4F42E01EDF3981A1
:1008A00020E08A8190E0822B932B9093100180931B
:1008B0000F0188EBBE016F5F7F4F42E00EDF398191
:1008C00020E08A8190E0822B932B90930401809307
:1008D00003018AEBBE016F5F7F4F42E0FEDE39818C
:1008E00020E08A8190E0822B932B909318018093D3
:1008F00017018CEBBE016F5F7F4F42E0EEDE398166
:1009000020E08A8190E0822B932B90931C018093AE
:100910001B018EEBBE016F5F7F4F42E0DEDE39814F
:1009200020E08A8190E0822B932B90931401809396
:1009300013010F900F90DF91CF910895CF92DF9226
:10094000EF92FF920F931F93CF93DF9300D0CDB719
:10095000DEB71A82198284EF6EE2AADE8FEF95E38A
:100960000197F1F700C0000086EFBE016F5F7F4F77
:1009700042E0B3DE898190E0A0E0B0E0BA2FA92F79
:10098000982F88274A8150E060E070E0842B952BF7
:10099000A62BB72B409111015091120160E070E03D
:1009A000841B950BA60BB70B2091190130911A01EE
:1009B00040E050E0BC01CD011DD86B017C01EFE0AF
:1009C000F594E794D794C794EA95D1F760911B0109
:1009D00070911C01882777FD8095982FFBE0660FAA
:1009E000771F881F991FFA95D1F720911301309135
:1009F0001401442737FD4095542F2C0D3D1D4E1DED
:100A00005F1D39D889019A010C0D1D1D2E1D3F1D3A
:100A100000930B0110930C0120930D0130930E01F4
:100A20000F900F90DF91CF911F910F91FF90EF905A
:100A3000DF90CF9008954F925F926F927F928F9246
:100A40009F92AF92BF92CF92DF92EF92FF92CF939D
:100A5000DF93CDB7DEB72B970FB6F894DEBF0FBE8E
:100A6000CDBF6E010894C11CD11C83E0D6011D923C
:100A70008A95E9F763DF84EF64EF1ADE83EA90EE8C
:100A8000A0E081509040A040E1F700C0000086EF58
:100A9000B60143E022DE80910B0190910C01A09100
:100AA0000D01B0910E01805A9F40A040B0408C8350
:100AB0009D83AE83BF83BC01CD019B01AC019AD75E
:100AC0002B013C016091090170910A01882777FD93
:100AD0008095982F8FD76B017C01EDE0F594E7941A
:100AE000D794C794EA95D1F760910F0170911001E6
:100AF000882777FD8095982FA3019201FCE05595FA
:100B0000479537952795FA95D1F774D7DC01CB0136
:100B1000CD01BB2797FDB095AB2FC80ED91EEA1E9D
:100B2000FB1E82E090E0A0E0B0E0C80ED91EEA1EF5
:100B3000FB1EF2E0F594E794D794C794FA95D1F7A9
:100B400080E090E8A0E0B0E0C80ED91EEA1EFB1ECF
:100B5000209101013091020140E050E0C701B6014F
:100B600049D7DC01CB01EFE0B695A795979587951E
:100B7000EA95D1F788879987AA87BB87C980DD2442
:100B8000EE24FF247601DD24CC248A8190E0A0E0CD
:100B9000B0E0BA2FA92F982F8827C82AD92AEA2A85
:100BA000FB2A8B8190E0A0E0B0E0C82AD92AEA2A8B
:100BB000FB2AF5E0F594E794D794C794FA95D1F71A
:100BC0008090150190901601AA2497FCA094BA2C4D
:100BD000E2E0880C991CAA1CBB1CEA95D1F7609135
:100BE000030170910401882777FD8095982FA30158
:100BF000920100D72B013C01F7E17594679457945B
:100C00004794FA95D1F760911D0170911E018827D4
:100C100077FD8095982F2C813D814E815F81EAD6AA
:100C2000DC01CB01EBE0B595A79597958795EA9503
:100C3000D1F7480E591E6A1E7B1E840C951CA61CFB
:100C4000B71C880C991CAA1CBB1CC818D908EA0838
:100C5000FB08C701B6012AE638E140E050E0CAD6F9
:100C600097FD0CC0660F771F881F991F288539854F
:100C70004A855B85DED649015A010BC02885398536
:100C80004A855B85D6D649015A01880C991CAA1C55
:100C9000BB1C5527B7FC5A954B2D3A2D292DCA015F
:100CA000B901A8D62EED3BE040E050E0A3D66C01A0
:100CB000FF24D7FCF094EF2CC501B40123E433EEFC
:100CC0004FEF5FEF97D6DC01CB01CD01BB2797FD3E
:100CD000B095AB2FC80ED91EEA1EFB1E8FEC9EE00E
:100CE000A0E0B0E0C80ED91EEA1EFB1EF4E0F594A9
:100CF000E794D794C794FA95D1F7C80CD91CEA1C8D
:100D0000FB1CC0920501D0920601E0920701F0920F
:100D10000801C701B6011FDDDC01CB01809305018D
:100D200090930601A0930701B09308012B960FB68C
:100D3000F894DEBF0FBECDBFDF91CF91FF90EF9053
:100D4000DF90CF90BF90AF909F908F907F906F90EB
:100D50005F904F900895F2DD80910B0190910C010E
:100D6000A0910D01B0910E010896A11DB11D24E0C6
:100D7000B595A795979587952A95D1F7BC01CD0193
:100D8000E5D3462F572F682F792FCB01BA0120E0EA
:100D900030E040E251E43FD3462F572F682F792FA0
:100DA000CB01BA01089547DE6091050170910601FB
:100DB000809107019091080108950F931F933BDEE6
:100DC00060910501709106018091070190910801E1
:100DD000BDD320E836EE45EC57E41DD321E03EEDCF
:100DE00042E45EE3A2D4B62FA72F382F292F60E06C
:100DF00070E080E89FE3FD01A9010F2F1E2F252F32
:100E0000342FA9019801A2D22BE43AE34DEB57E32A
:100E100002D320E030E0A9019AD2462F572F682F45
:100E2000792FCB01BA011F910F910895CF93D3D0A1
:100E300085E28A95F1F7C6DC81DDC5E1FCDDC150B4
:100E4000E9F7CF910895CF92DF92EF92FF920F933F
:100E50001F93CF93DF9300D000D00F92CDB7DEB7B2
:100E60007C016B01FE01319685E0DF011D928A95C0
:100E7000E9F7A39AAB9A8FEF9FE5A3E081509040EA
:100E8000A040E1F700C00000AB98A6E6B5E01197DE
:100E9000F1F70000AB9AA398B3E9BA95F1F700C057
:100EA0009B9988C08DED90E00197F1F79B9B82C0E4
:100EB000ADEDB0E01197F1F745E061E070E026C0DC
:100EC000019719F477C089EC90E09B9BF9CFBEE6BF
:100ED000BA95F1F700C09B9B08C0CB01022E02C05F
:100EE000880F991F0A94E2F7582B89EC90E003C011
:100EF000019709F45FC09B99FBCF215030408FEFE1
:100F00002F3F380701F75193415021F027E030E09F
:100F100050E0D9CFA39AAB9A8FEF9FE5A3E0815021
:100F20009040A040E1F700C0000039810A812B8188
:100F30006C81802F830F820F860F9D818917D1F5D9
:100F4000932F80E010E0082B192B922F80E070E0A7
:100F5000682B792B77FF0DC07F7780E090E0F4D28B
:100F600020E030E040E251E456D2DC01CB01B05841
:100F70000AC080E090E0E8D220E030E040E251E4B6
:100F80004AD2DC01CB01F70180839183A283B38332
:100F9000B80180E090E0D8D220E030E040E251E4B7
:100FA0003AD2DC01CB01F60180839183A283B38323
:100FB00080E001C08FEF0F900F900F900F900F9077
:100FC000DF91CF911F910F91FF90EF90DF90CF9025
:100FD000089539DF089511B88FE280B9089594EA31
:100FE00096BF06B607FEFDCF91B1987F983011F0FD
:100FF000903179F483B984E886BF06B607FEFDCF49
:1010000091B1987F983139F081E0903429F480E0F3
:10101000089581E0089580E0089544EA34E824E9E1
:1010200046BF06B607FEFDCF91B1987F983011F00C
:101030009031B1F783B936BF06B607FEFDCF91B147
:10104000987F903211F0983529F426BF06B604FC3B
:10105000FDCFE6CF0895C3DF089584E986BF06B6C5
:1010600004FCFDCF089583B984E886BF06B607FE69
:10107000FDCF91B1987F81E0983209F480E0089526
:1010800084EC86BF06B607FEFDCF83B1089584E8E1
:1010900086BF06B607FEFDCF83B10895AF92BF921B
:1010A000DF92EF92FF920F931F93CF93DF9300D0C5
:1010B000CDB7DEB7082FD42E80E469837A83ADDF05
:1010C000802FD1DF81E4C7DF6981062F7A81172F56
:1010D000EE24FF24AD2CBB240894A108B1080DC058
:1010E000EA14FB0411F4D3DF01C0CADFF8018083E6
:1010F0000894E11CF11C0F5F1F4FED1488F3ADDF66
:101100000F900F90DF91CF911F910F91FF90EF9073
:10111000DF90BF90AF900895CF93DF930F92CDB73C
:10112000DEB780E0BE016F5F7F4F41E0B7DF8981AE
:101130000F90DF91CF910895EF92FF920F931F933D
:10114000CF93DF93CDB7DEB728970FB6F894DEBF05
:101150000FBECDBF8C017B0187E0BE016F5F7F4F6B
:1011600048E09CDF89819A81AB81BC81F801808352
:101170009183A283B3838D819E81AF81B885F7016E
:1011800080839183A283B38328960FB6F894DEBF41
:101190000FBECDBFDF91CF911F910F91FF90EF90C8
:1011A0000895EF92FF920F931F93CF93DF9300D098
:1011B00000D0CDB7DEB78C017B018FE1BE016F5F40
:1011C0007F4F44E06BDF89819A81F80191838083AE
:1011D0008B819C81F701918380830F900F900F90FA
:1011E0000F90DF91CF911F910F91FF90EF90089595
:1011F0000F931F93CF93DF9300D000D0CDB7DEB70E
:101200008C0187E2BE016F5F7F4F44E047DF898139
:101210009A81AB81BC81F80180839183A283B383DF
:101220000F900F900F900F90DF91CF911F910F9122
:1012300008951F920F920FB60F9211242F938F9340
:101240009F93EF93FF938BB19CB1E091B600EF5F5A
:10125000E7702091B500E21741F08871E093B60085
:10126000F0E0E754FF4F908301C082E08093B40028
:10127000FF91EF919F918F912F910F900FBE0F9043
:101280001F9018951F920F920FB60F9211248F93F3
:101290009F93EF93FF939091B8008091B7009817B8
:1012A00061F0E091B700EF5FEF73E093B700F0E01B
:1012B000EF53FF4F80818CB901C05598FF91EF919A
:1012C0009F918F910F900FBE0F901F9018951092C5
:1012D000B8001092B7001092B6001092B50097FFB8
:1012E00003C022E02BB99F7790BD89B988E98AB9FC
:1012F00086E880BD08959091B6008091B50098175A
:1013000089F0E091B500EF5FE770E093B500F0E0A1
:10131000E754FF4F20813091B400932F80E0820F7B
:10132000911D089580E091E008959091B8009F5F2D
:101330009F732091B7009217E1F3E92FF0E0EF538C
:10134000FF4F80839093B800559A08955058BB275B
:10135000AA270ED04DC13ED130F043D120F031F458
:101360009F3F11F41EF433C10EF4E095E7FB29C151
:10137000E92F4FD180F3BA176207730784079507E7
:1013800018F071F49EF567C10EF4E0950B2EBA2F9C
:10139000A02D0B01B90190010C01CA01A00111247B
:1013A000FF27591B99F0593F50F4503E68F11A1627
:1013B000F040A22F232F342F4427585FF3CF4695B8
:1013C00037952795A795F0405395C9F77EF41F16DA
:1013D000BA0B620B730B840BBAF09150A1F0FF0FA4
:1013E000BB1F661F771F881FC2F70EC0BA0F621F90
:1013F000731F841F48F4879577956795B795F79580
:101400009E3F08F0B3CF9395880F08F09927EE0F11
:101410009795879508950CD0EBC0E3D040F0DAD0D3
:1014200030F021F45F3F19F0CCC0511115C1CFC08D
:10143000F0D098F39923C9F35523B1F3951B550BBD
:10144000BB27AA2762177307840738F09F5F5F4F97
:10145000220F331F441FAA1FA9F333D00E2E3AF0D8
:10146000E0E830D091505040E695001CCAF729D0F2
:10147000FE2F27D0660F771F881FBB1F2617370741
:101480004807AB07B0E809F0BB0B802DBF01FF2771
:1014900093585F4F2AF09E3F510568F092C0DCC020
:1014A0005F3FECF3983EDCF3869577956795B795AB
:1014B000F7959F5FC9F7880F911D9695879597F9C6
:1014C0000895E1E0660F771F881FBB1F621773073F
:1014D0008407BA0720F0621B730B840BBA0BEE1F54
:1014E00088F7E095089504D06894B111B5C00895C7
:1014F00098D088F09F5790F0B92F9927B751A0F056
:10150000D1F0660F771F881F991F1AF0BA95C9F797
:1015100012C0B13081F09FD0B1E008959CC0672F18
:10152000782F8827B85F39F0B93FCCF38695779547
:101530006795B395D9F73EF4909580957095619530
:101540007F4F8F4F9F4F0895E89409C097FB3EF45B
:1015500090958095709561957F4F8F4F9F4F992300
:10156000A9F0F92F96E9BB279395F695879577957E
:101570006795B795F111F8CFFAF4BB0F11F460FF3E
:101580001BC06F5F7F4F8F4F9F4F16C0882311F096
:1015900096E911C0772321F09EE8872F762F05C0AA
:1015A000662371F096E8862F70E060E02AF09A9545
:1015B000660F771F881FDAF7880F9695879597F93A
:1015C000089597F99F6780E870E060E008959FEFC5
:1015D00080EC089500240A941616170618060906CA
:1015E000089500240A941216130614060506089599
:1015F000092E0394000C11F4882352F0BB0F40F421
:10160000BF2B11F460FF04C06F5F7F4F8F4F9F4F60
:10161000089557FD9058440F551F59F05F3F71F0E2
:101620004795880F97FB991F61F09F3F79F0879549
:101630000895121613061406551FF2CF4695F1DFD2
:1016400008C0161617061806991FF1CF8695710562
:10165000610508940895E894BB2766277727CB0196
:1016600097F908950BD0C4CFB5DF28F0BADF18F092
:10167000952309F0A6CFABCF1124EECFCADFA0F39C
:10168000959FD1F3950F50E0551F629FF001729F17
:10169000BB27F00DB11D639FAA27F00DB11DAA1F36
:1016A000649F6627B00DA11D661F829F2227B00D83
:1016B000A11D621F739FB00DA11D621F839FA00D0E
:1016C000611D221F749F3327A00D611D231F849F5E
:1016D000600D211D822F762F6A2F11249F575040B5
:1016E0008AF0E1F088234AF0EE0FFF1FBB1F661F50
:1016F000771F881F91505040A9F79E3F510570F009
:1017000060CFAACF5F3FECF3983EDCF386957795E8
:101710006795B795F795E7959F5FC1F7FE2B880F03
:10172000911D9695879597F90895FA01EE0FFF1F81
:1017300030962105310599F16115710561F4803804
:10174000BFE39B0749F168949038810561F08038C8
:10175000BFEF9B0741F0992342F5FF3FE1053105BB
:10176000210511F1E8940894E795D901AA2329F4F9
:10177000AB2FBE2FF85FD0F310C0FF5F70F4A695BB
:10178000E0F7F73950F019F0FF3A38F49F779F935C
:101790000CD00F9007FC905808953EF018CF60E0F1
:1017A00070E080E89FE308954FE79F775F934F9342
:1017B0003F932F939ED02F913F914F915F9152DF96
:1017C00005C019F40EF0FDCE46CF01CF2ADFC8F3D5
:1017D0009638C0F707F80F92E8942BE33AEA48EB03
:1017E0005FE74EDF0F920F920F924DB75EB70F92E9
:1017F000C0D0E6E2F0E016D04F915F91EF91FF91FB
:10180000E595EE1FFF1F49F0FE57E0684427EE0FF5
:10181000441FFA95E1F74195550B32D00F9007FE22
:1018200026C00895DF93CF931F930F93FF92EF92FB
:10183000DF927B018C01689405C0DA2EEF011EDF78
:10184000FE01E894A5912591359145915591AEF30E
:10185000EF018EDDFE019701A801DA9479F7DF90A0
:10186000EF90FF900F911F91CF91DF9108959B0111
:10187000AC0160E070E080E89FE3CDCDA2CEACC0CB
:10188000D0DEE8F39923D9F3940F511DBBF39150A7
:10189000504094F059F0882332F0660F771F881F6C
:1018A00091505040C1F79E3F510544F7880F911D5C
:1018B0009695879597F908955F3FACF0983E9CF018
:1018C000BB27869577956795B79508F4B160939592
:1018D000C1F7BB0F58F711F460FFE8CF6F5F7F4F80
:1018E0008F4F9F4FE3CFB8CE0EF076C070CE689486
:1018F00068CE97DEC8F39923D1F3C6F3DF93CF9375
:101900001F930F93FF92C92FDD2788232AF0219779
:10191000660F771F881FDAF720E030E040E85FEBC2
:101920009FE3883920F0803E30F021968F770FDDDD
:10193000EEE4F0E003C00BDDEBE7F0E073DF8B01DA
:10194000BE01EC01FB2E6F5771097595771F880B4F
:10195000990BFCDD28E132E741E35FE38FDEAF2D39
:101960009801AE01FF900F911F91CF91DF9100DDA3
:101970003FCEFA01DC01AA0FBB1F9B01AC01BF5790
:1019800028F422273327442750781FC0B75188F402
:10199000AB2F0024469537952795011CA395D2F3CC
:1019A000002069F0220F331F441FB395DAF30DD0E6
:1019B000CDCC61307105A0E88A07B94630F49B01AF
:1019C000AC016627772788279078309621F020830E
:1019D00031834283538308959F3F31F0915020F427
:1019E000879577956795B795880F911D96958795FB
:1019F00097F90895629FD001739FF001829FE00DD7
:101A0000F11D649FE00DF11D929FF00D839FF00D7D
:101A1000749FF00D659FF00D9927729FB00DE11D29
:101A2000F91F639FB00DE11DF91FBD01CF01112406
:101A30000895A1E21A2EAA1BBB1BFD010DC0AA1F0F
:101A4000BB1FEE1FFF1FA217B307E407F50720F027
:101A5000A21BB30BE40BF50B661F771F881F991FA2
:101A60001A9469F760957095809590959B01AC01EB
:101A7000BD01CF01089597FB092E05260ED057FD15
:101A800004D0D7DF0AD0001C38F45095409530952B
:101A900021953F4F4F4F5F4F0895F6F790958095F2
:101AA000709561957F4F8F4F9F4F0895FB01DC012B
:101AB00002C001900D9241505040D8F70895F8941B
:021AC000FFCF56
:00000001FF
