:1000000012C02CC02BC02AC029C028C027C026C0BF
:1000100025C024C023C022C021C020C01FC01EC0D4
:100020001DC01CC01BC011241FBECFE5D4E0DEBF25
:10003000CDBF10E0A0E6B0E0E8ECF0E002C0059033
:100040000D92A036B107D9F710E0A0E6B0E001C0EC
:100050001D92A036B107E1F702D034C0D1CFCF93C3
:10006000DF9300D000D0CDB7DEB781E6898382E68A
:100070008A8383E68B8384E68C83FE0131969E011E
:100080002B5F3F4F80E090E041918427482F4295BD
:100090004827042E469546954025042E4695402532
:1000A0004770082E892F469507944795902D8427F1
:1000B0000694479590258427E217F30729F79DBDFD
:0800C0008CBDFFCFF894FFCFC7
:00000001FF
